{"abi":[{"type":"function","name":"name","inputs":[],"outputs":[{"name":"","type":"bytes32","internalType":"bytes32"}],"stateMutability":"view"},{"type":"function","name":"setName","inputs":[{"name":"newName","type":"bytes32","internalType":"bytes32"}],"outputs":[],"stateMutability":"nonpayable"}],"bytecode":{"object":"0x6080604052348015600e575f5ffd5b506101268061001c5f395ff3fe6080604052348015600e575f5ffd5b50600436106030575f3560e01c806306fdde031460345780635ac801fe14604e575b5f5ffd5b603a6066565b60405160459190608a565b60405180910390f35b606460048036038101906060919060ca565b606b565b005b5f5481565b805f8190555050565b5f819050919050565b6084816074565b82525050565b5f602082019050609b5f830184607d565b92915050565b5f5ffd5b60ac816074565b811460b5575f5ffd5b50565b5f8135905060c48160a5565b92915050565b5f6020828403121560dc5760db60a1565b5b5f60e78482850160b8565b9150509291505056fea264697066735822122018d16c350063def55db66119090f4e57436c09ea4027ca2608a2e4be3565345d64736f6c634300081e0033","linkReferences":{}},"methodIdentifiers":{"name()":"06fdde03","setName(bytes32)":"5ac801fe"},"id":0}